{
  "address": "0xCf7Ed3AccA5a467e9e704C703E8D87F634fB0Fc9",
  "abi": [
    {
      "inputs": [
        {
          "internalType": "address",
          "name": "vrfCoordinatorV2",
          "type": "address"
        },
        {
          "internalType": "uint64",
          "name": "subscriptionId",
          "type": "uint64"
        },
        {
          "internalType": "bytes32",
          "name": "gasLane",
          "type": "bytes32"
        },
        {
          "internalType": "uint256",
          "name": "interval",
          "type": "uint256"
        },
        {
          "internalType": "uint256",
          "name": "entranceFee",
          "type": "uint256"
        },
        {
          "internalType": "uint32",
          "name": "callbackGasLimit",
          "type": "uint32"
        }
      ],
      "stateMutability": "nonpayable",
      "type": "constructor"
    },
    {
      "inputs": [
        {
          "internalType": "address",
          "name": "have",
          "type": "address"
        },
        {
          "internalType": "address",
          "name": "want",
          "type": "address"
        }
      ],
      "name": "OnlyCoordinatorCanFulfill",
      "type": "error"
    },
    {
      "inputs": [],
      "name": "Raffle__NotEnoughETHEntered",
      "type": "error"
    },
    {
      "inputs": [],
      "name": "Raffle__NotOpen",
      "type": "error"
    },
    {
      "inputs": [],
      "name": "Raffle__TransferFailed",
      "type": "error"
    },
    {
      "inputs": [
        {
          "internalType": "uint256",
          "name": "raffleState",
          "type": "uint256"
        },
        {
          "internalType": "uint256",
          "name": "numPlayers",
          "type": "uint256"
        },
        {
          "internalType": "uint256",
          "name": "currentBalance",
          "type": "uint256"
        }
      ],
      "name": "Raffle__UpkeepNotNeeded",
      "type": "error"
    },
    {
      "anonymous": false,
      "inputs": [
        {
          "indexed": true,
          "internalType": "bool",
          "name": "upkeepNeeded",
          "type": "bool"
        }
      ],
      "name": "NeededUpkeep",
      "type": "event"
    },
    {
      "anonymous": false,
      "inputs": [
        {
          "indexed": true,
          "internalType": "bool",
          "name": "timePassed",
          "type": "bool"
        }
      ],
      "name": "PassedTime",
      "type": "event"
    },
    {
      "anonymous": false,
      "inputs": [
        {
          "indexed": true,
          "internalType": "address",
          "name": "player",
          "type": "address"
        }
      ],
      "name": "RaffleEnter",
      "type": "event"
    },
    {
      "anonymous": false,
      "inputs": [
        {
          "indexed": true,
          "internalType": "uint256",
          "name": "requestId",
          "type": "uint256"
        }
      ],
      "name": "RequestedRaffleWinner",
      "type": "event"
    },
    {
      "anonymous": false,
      "inputs": [
        {
          "indexed": true,
          "internalType": "address",
          "name": "winner",
          "type": "address"
        }
      ],
      "name": "WinnerPicked",
      "type": "event"
    },
    {
      "inputs": [
        {
          "internalType": "bytes",
          "name": "",
          "type": "bytes"
        }
      ],
      "name": "checkUpkeep",
      "outputs": [
        {
          "internalType": "bool",
          "name": "upkeepNeeded",
          "type": "bool"
        },
        {
          "internalType": "bytes",
          "name": "",
          "type": "bytes"
        }
      ],
      "stateMutability": "nonpayable",
      "type": "function"
    },
    {
      "inputs": [],
      "name": "enterRaffle",
      "outputs": [],
      "stateMutability": "payable",
      "type": "function"
    },
    {
      "inputs": [],
      "name": "getEntranceFee",
      "outputs": [
        {
          "internalType": "uint256",
          "name": "",
          "type": "uint256"
        }
      ],
      "stateMutability": "view",
      "type": "function"
    },
    {
      "inputs": [],
      "name": "getInterval",
      "outputs": [
        {
          "internalType": "uint256",
          "name": "",
          "type": "uint256"
        }
      ],
      "stateMutability": "view",
      "type": "function"
    },
    {
      "inputs": [],
      "name": "getLatestTimestamp",
      "outputs": [
        {
          "internalType": "uint256",
          "name": "",
          "type": "uint256"
        }
      ],
      "stateMutability": "view",
      "type": "function"
    },
    {
      "inputs": [],
      "name": "getNumWords",
      "outputs": [
        {
          "internalType": "uint32",
          "name": "",
          "type": "uint32"
        }
      ],
      "stateMutability": "pure",
      "type": "function"
    },
    {
      "inputs": [],
      "name": "getNumberOfPlayers",
      "outputs": [
        {
          "internalType": "uint256",
          "name": "",
          "type": "uint256"
        }
      ],
      "stateMutability": "view",
      "type": "function"
    },
    {
      "inputs": [
        {
          "internalType": "uint256",
          "name": "index",
          "type": "uint256"
        }
      ],
      "name": "getPlayer",
      "outputs": [
        {
          "internalType": "address",
          "name": "",
          "type": "address"
        }
      ],
      "stateMutability": "view",
      "type": "function"
    },
    {
      "inputs": [],
      "name": "getRaffleState",
      "outputs": [
        {
          "internalType": "enum Raffle.RaffleState",
          "name": "",
          "type": "uint8"
        }
      ],
      "stateMutability": "view",
      "type": "function"
    },
    {
      "inputs": [],
      "name": "getRecentWinner",
      "outputs": [
        {
          "internalType": "address",
          "name": "",
          "type": "address"
        }
      ],
      "stateMutability": "view",
      "type": "function"
    },
    {
      "inputs": [],
      "name": "getRequestConfirmations",
      "outputs": [
        {
          "internalType": "uint256",
          "name": "",
          "type": "uint256"
        }
      ],
      "stateMutability": "pure",
      "type": "function"
    },
    {
      "inputs": [
        {
          "internalType": "bytes",
          "name": "",
          "type": "bytes"
        }
      ],
      "name": "performUpkeep",
      "outputs": [],
      "stateMutability": "nonpayable",
      "type": "function"
    },
    {
      "inputs": [
        {
          "internalType": "uint256",
          "name": "requestId",
          "type": "uint256"
        },
        {
          "internalType": "uint256[]",
          "name": "randomWords",
          "type": "uint256[]"
        }
      ],
      "name": "rawFulfillRandomWords",
      "outputs": [],
      "stateMutability": "nonpayable",
      "type": "function"
    }
  ],
  "transactionHash": "0xcdf1906303f5392adee0e168e7a03e631c10604a6b30c8e7d01a571a9d7bcc3b",
  "args": [
    "0x5FbDB2315678afecb367f032d93F642f64180aa3",
    "1",
    "0xd89b2bf150e3b9e13446986e571fb9cab24b13cea0a43ea20a6049a85cc807cc",
    "30",
    "100000000000000000",
    "500000"
  ],
  "numDeployments": 1,
  "solcInputHash": "b5df3401264e3397fce6c2113e9a1e0c",
  "bytecode": "0x6101606040523480156200001257600080fd5b50604051620018d2380380620018d28339818101604052810190620000389190620001ad565b858073ffffffffffffffffffffffffffffffffffffffff1660808173ffffffffffffffffffffffffffffffffffffffff1660601b81525050508160a081815250508573ffffffffffffffffffffffffffffffffffffffff1660c08173ffffffffffffffffffffffffffffffffffffffff1660601b815250508360e081815250508467ffffffffffffffff166101008167ffffffffffffffff1660c01b815250508063ffffffff166101208163ffffffff1660e01b815250506000600160146101000a81548160ff02191690836001811115620001195762000118620002b5565b5b0217905550426002819055508261014081815250505050505050506200036b565b6000815190506200014b81620002e9565b92915050565b600081519050620001628162000303565b92915050565b60008151905062000179816200031d565b92915050565b600081519050620001908162000337565b92915050565b600081519050620001a78162000351565b92915050565b60008060008060008060c08789031215620001cd57620001cc620002e4565b5b6000620001dd89828a016200013a565b9650506020620001f089828a0162000196565b95505060406200020389828a0162000151565b94505060606200021689828a0162000168565b93505060806200022989828a0162000168565b92505060a06200023c89828a016200017f565b9150509295509295509295565b6000620002568262000267565b9050919050565b6000819050919050565b600073ffffffffffffffffffffffffffffffffffffffff82169050919050565b6000819050919050565b600063ffffffff82169050919050565b600067ffffffffffffffff82169050919050565b7f4e487b7100000000000000000000000000000000000000000000000000000000600052602160045260246000fd5b600080fd5b620002f48162000249565b81146200030057600080fd5b50565b6200030e816200025d565b81146200031a57600080fd5b50565b620003288162000287565b81146200033457600080fd5b50565b620003428162000291565b81146200034e57600080fd5b50565b6200035c81620002a1565b81146200036857600080fd5b50565b60805160601c60a05160c05160601c60e0516101005160c01c6101205160e01c610140516114eb620003e76000396000818161080c01526108d8015260006106c10152600061069e0152600061067d015260006106410152600081816102fa01526103f7015260008181610337015261038b01526114eb6000f3fe6080604052600436106100c25760003560e01c806353a2c19a1161007f57806391ad27b41161005957806391ad27b414610238578063e55ae4e814610263578063f43b52cb146102a0578063fd6673f5146102cb576100c2565b806353a2c19a146101a45780635f1b0fd8146101cf5780636e04ff0d146101fa576100c2565b806309bc33a7146100c7578063115cbaf5146100f25780631fe543e31461011d5780632cfcc539146101465780634585e33b14610150578063473f1ddc14610179575b600080fd5b3480156100d357600080fd5b506100dc6102f6565b6040516100e991906110d6565b60405180910390f35b3480156100fe57600080fd5b5061010761031e565b60405161011491906110bb565b60405180910390f35b34801561012957600080fd5b50610144600480360381019061013f9190610eaf565b610335565b005b61014e6103f5565b005b34801561015c57600080fd5b5061017760048036038101906101729190610dbf565b610564565b005b34801561018557600080fd5b5061018e610789565b60405161019b9190610ff4565b60405180910390f35b3480156101b057600080fd5b506101b96107b3565b6040516101c69190611128565b60405180910390f35b3480156101db57600080fd5b506101e46107bc565b6040516101f191906110d6565b60405180910390f35b34801561020657600080fd5b50610221600480360381019061021c9190610e0c565b6107c9565b60405161022f929190611038565b60405180910390f35b34801561024457600080fd5b5061024d6108d4565b60405161025a91906110d6565b60405180910390f35b34801561026f57600080fd5b5061028a60048036038101906102859190610e55565b6108fc565b6040516102979190610ff4565b60405180910390f35b3480156102ac57600080fd5b506102b5610943565b6040516102c291906110d6565b60405180910390f35b3480156102d757600080fd5b506102e061094d565b6040516102ed91906110d6565b60405180910390f35b60007f0000000000000000000000000000000000000000000000000000000000000000905090565b6000600160149054906101000a900460ff16905090565b7f000000000000000000000000000000000000000000000000000000000000000073ffffffffffffffffffffffffffffffffffffffff163373ffffffffffffffffffffffffffffffffffffffff16146103e757337f00000000000000000000000000000000000000000000000000000000000000006040517f1cf993f40000000000000000000000000000000000000000000000000000000081526004016103de92919061100f565b60405180910390fd5b6103f18282610959565b5050565b7f000000000000000000000000000000000000000000000000000000000000000034101561044f576040517fbd4e069500000000000000000000000000000000000000000000000000000000815260040160405180910390fd5b60006001811115610463576104626113cb565b5b600160149054906101000a900460ff166001811115610485576104846113cb565b5b146104bc576040517f1425571c00000000000000000000000000000000000000000000000000000000815260040160405180910390fd5b6000339080600181540180825580915050600190039060005260206000200160009091909190916101000a81548173ffffffffffffffffffffffffffffffffffffffff021916908373ffffffffffffffffffffffffffffffffffffffff1602179055503373ffffffffffffffffffffffffffffffffffffffff167f0805e1d667bddb8a95f0f09880cf94f403fb596ce79928d9f29b74203ba284d460405160405180910390a2565b60006105a46040518060400160405280600281526020017f30780000000000000000000000000000000000000000000000000000000000008152506107c9565b5090508061061357600160149054906101000a900460ff1660018111156105ce576105cd6113cb565b5b600080549050476040517f584327aa00000000000000000000000000000000000000000000000000000000815260040161060a939291906110f1565b60405180910390fd5b60018060146101000a81548160ff02191690836001811115610638576106376113cb565b5b021790555060007f000000000000000000000000000000000000000000000000000000000000000073ffffffffffffffffffffffffffffffffffffffff16635d3b1d307f00000000000000000000000000000000000000000000000000000000000000007f000000000000000000000000000000000000000000000000000000000000000060037f000000000000000000000000000000000000000000000000000000000000000060016040518663ffffffff1660e01b8152600401610702959493929190611068565b602060405180830381600087803b15801561071c57600080fd5b505af1158015610730573d6000803e3d6000fd5b505050506040513d601f19601f820116820180604052508101906107549190610e82565b9050807fcd6e45c8998311cab7e9d4385596cac867e20a0587194b954fa3a731c93ce78b60405160405180910390a250505050565b6000600160009054906101000a900473ffffffffffffffffffffffffffffffffffffffff16905090565b60006001905090565b6000600361ffff16905090565b600060606000600160149054906101000a900460ff1660018111156107f1576107f06113cb565b5b60006001811115610805576108046113cb565b5b14905060007f00000000000000000000000000000000000000000000000000000000000000006002544261083991906111ec565b119050600080600080549050119050600080471190508380156108595750825b80156108625750815b801561086b5750805b95508515157f7511df20e43b1959f68d5eb44f84383b3c16f2bdbd18665ffffdb993228ddf7860405160405180910390a28215157fd10ef2f11b86c408233a9c707a30150509ff2592e365c7c570a36f6b54352a8960405160405180910390a250505050915091565b60007f0000000000000000000000000000000000000000000000000000000000000000905090565b6000808281548110610911576109106113fa565b5b9060005260206000200160009054906101000a900473ffffffffffffffffffffffffffffffffffffffff169050919050565b6000600254905090565b60008080549050905090565b6000808054905082600081518110610974576109736113fa565b5b6020026020010151610986919061133c565b9050600080828154811061099d5761099c6113fa565b5b9060005260206000200160009054906101000a900473ffffffffffffffffffffffffffffffffffffffff16905080600160006101000a81548173ffffffffffffffffffffffffffffffffffffffff021916908373ffffffffffffffffffffffffffffffffffffffff1602179055506000600160146101000a81548160ff02191690836001811115610a3157610a306113cb565b5b0217905550600067ffffffffffffffff811115610a5157610a50611429565b5b604051908082528060200260200182016040528015610a7f5781602001602082028036833780820191505090505b5060009080519060200190610a95929190610b8a565b504260028190555060008173ffffffffffffffffffffffffffffffffffffffff1647604051610ac390610fdf565b60006040518083038185875af1925050503d8060008114610b00576040519150601f19603f3d011682016040523d82523d6000602084013e610b05565b606091505b5050905080610b40576040517fa1d04b3900000000000000000000000000000000000000000000000000000000815260040160405180910390fd5b8173ffffffffffffffffffffffffffffffffffffffff167f5b690ec4a06fe979403046eaeea5b3ce38524683c3001f662c8b5a829632f7df60405160405180910390a25050505050565b828054828255906000526020600020908101928215610c03579160200282015b82811115610c025782518260006101000a81548173ffffffffffffffffffffffffffffffffffffffff021916908373ffffffffffffffffffffffffffffffffffffffff16021790555091602001919060010190610baa565b5b509050610c109190610c14565b5090565b5b80821115610c2d576000816000905550600101610c15565b5090565b6000610c44610c3f84611168565b611143565b90508083825260208201905082856020860282011115610c6757610c66611462565b5b60005b85811015610c975781610c7d8882610d95565b845260208401935060208301925050600181019050610c6a565b5050509392505050565b6000610cb4610caf84611194565b611143565b905082815260208101848484011115610cd057610ccf611467565b5b610cdb8482856112c9565b509392505050565b600082601f830112610cf857610cf761145d565b5b8135610d08848260208601610c31565b91505092915050565b60008083601f840112610d2757610d2661145d565b5b8235905067ffffffffffffffff811115610d4457610d43611458565b5b602083019150836001820283011115610d6057610d5f611462565b5b9250929050565b600082601f830112610d7c57610d7b61145d565b5b8135610d8c848260208601610ca1565b91505092915050565b600081359050610da48161149e565b92915050565b600081519050610db98161149e565b92915050565b60008060208385031215610dd657610dd5611471565b5b600083013567ffffffffffffffff811115610df457610df361146c565b5b610e0085828601610d11565b92509250509250929050565b600060208284031215610e2257610e21611471565b5b600082013567ffffffffffffffff811115610e4057610e3f61146c565b5b610e4c84828501610d67565b91505092915050565b600060208284031215610e6b57610e6a611471565b5b6000610e7984828501610d95565b91505092915050565b600060208284031215610e9857610e97611471565b5b6000610ea684828501610daa565b91505092915050565b60008060408385031215610ec657610ec5611471565b5b6000610ed485828601610d95565b925050602083013567ffffffffffffffff811115610ef557610ef461146c565b5b610f0185828601610ce3565b9150509250929050565b610f1481611220565b82525050565b610f2381611232565b82525050565b610f328161123e565b82525050565b6000610f43826111c5565b610f4d81856111d0565b9350610f5d8185602086016112d8565b610f6681611476565b840191505092915050565b610f7a816112b7565b82525050565b6000610f8d6000836111e1565b9150610f9882611487565b600082019050919050565b610fac8161125b565b82525050565b610fbb81611289565b82525050565b610fca81611293565b82525050565b610fd9816112a3565b82525050565b6000610fea82610f80565b9150819050919050565b60006020820190506110096000830184610f0b565b92915050565b60006040820190506110246000830185610f0b565b6110316020830184610f0b565b9392505050565b600060408201905061104d6000830185610f1a565b818103602083015261105f8184610f38565b90509392505050565b600060a08201905061107d6000830188610f29565b61108a6020830187610fd0565b6110976040830186610fa3565b6110a46060830185610fc1565b6110b16080830184610fc1565b9695505050505050565b60006020820190506110d06000830184610f71565b92915050565b60006020820190506110eb6000830184610fb2565b92915050565b60006060820190506111066000830186610fb2565b6111136020830185610fb2565b6111206040830184610fb2565b949350505050565b600060208201905061113d6000830184610fc1565b92915050565b600061114d61115e565b9050611159828261130b565b919050565b6000604051905090565b600067ffffffffffffffff82111561118357611182611429565b5b602082029050602081019050919050565b600067ffffffffffffffff8211156111af576111ae611429565b5b6111b882611476565b9050602081019050919050565b600081519050919050565b600082825260208201905092915050565b600081905092915050565b60006111f782611289565b915061120283611289565b9250828210156112155761121461136d565b5b828203905092915050565b600061122b82611269565b9050919050565b60008115159050919050565b6000819050919050565b60008190506112568261148a565b919050565b600061ffff82169050919050565b600073ffffffffffffffffffffffffffffffffffffffff82169050919050565b6000819050919050565b600063ffffffff82169050919050565b600067ffffffffffffffff82169050919050565b60006112c282611248565b9050919050565b82818337600083830152505050565b60005b838110156112f65780820151818401526020810190506112db565b83811115611305576000848401525b50505050565b61131482611476565b810181811067ffffffffffffffff8211171561133357611332611429565b5b80604052505050565b600061134782611289565b915061135283611289565b9250826113625761136161139c565b5b828206905092915050565b7f4e487b7100000000000000000000000000000000000000000000000000000000600052601160045260246000fd5b7f4e487b7100000000000000000000000000000000000000000000000000000000600052601260045260246000fd5b7f4e487b7100000000000000000000000000000000000000000000000000000000600052602160045260246000fd5b7f4e487b7100000000000000000000000000000000000000000000000000000000600052603260045260246000fd5b7f4e487b7100000000000000000000000000000000000000000000000000000000600052604160045260246000fd5b600080fd5b600080fd5b600080fd5b600080fd5b600080fd5b600080fd5b6000601f19601f8301169050919050565b50565b6002811061149b5761149a6113cb565b5b50565b6114a781611289565b81146114b257600080fd5b5056fea26469706673582212209e6df7fecf911c5dcc2301995f340a67622df2fc3d01f587a1ff33d9e461d52064736f6c63430008070033",
  "devdoc": {
    "kind": "dev",
    "methods": {},
    "version": 1
  },
  "userdoc": {
    "kind": "user",
    "methods": {
      "checkUpkeep(bytes)": {
        "notice": "CheckUpkeep is called - here from the chainlink keepers network - to check whether execution is needed. "
      },
      "enterRaffle()": {
        "notice": "enterRaffle is called by users who want to participate in the lottery - 1) they must add enough funds and 2) the lottery must be open "
      },
      "performUpkeep(bytes)": {
        "notice": "performUpkeep is called by the chainlink keepers if it is confirmed by checkUpkeep that execution is needed. In this case the execution is the submission of a request (requestID) to chainlin VRF "
      }
    },
    "version": 1
  },
  "storageLayout": {
    "storage": [
      {
        "astId": 197,
        "contract": "contracts/Raffle.sol:Raffle",
        "label": "s_players",
        "offset": 0,
        "slot": "0",
        "type": "t_array(t_address_payable)dyn_storage"
      },
      {
        "astId": 214,
        "contract": "contracts/Raffle.sol:Raffle",
        "label": "s_recentWinner",
        "offset": 0,
        "slot": "1",
        "type": "t_address"
      },
      {
        "astId": 217,
        "contract": "contracts/Raffle.sol:Raffle",
        "label": "s_raffleState",
        "offset": 20,
        "slot": "1",
        "type": "t_enum(RaffleState)192"
      },
      {
        "astId": 219,
        "contract": "contracts/Raffle.sol:Raffle",
        "label": "s_lastTimeStamp",
        "offset": 0,
        "slot": "2",
        "type": "t_uint256"
      }
    ],
    "types": {
      "t_address": {
        "encoding": "inplace",
        "label": "address",
        "numberOfBytes": "20"
      },
      "t_address_payable": {
        "encoding": "inplace",
        "label": "address payable",
        "numberOfBytes": "20"
      },
      "t_array(t_address_payable)dyn_storage": {
        "base": "t_address_payable",
        "encoding": "dynamic_array",
        "label": "address payable[]",
        "numberOfBytes": "32"
      },
      "t_enum(RaffleState)192": {
        "encoding": "inplace",
        "label": "enum Raffle.RaffleState",
        "numberOfBytes": "1"
      },
      "t_uint256": {
        "encoding": "inplace",
        "label": "uint256",
        "numberOfBytes": "32"
      }
    }
  }
}